:020000040800F2
:10000000685300202D220108D9220108DD220108B1
:10001000E1220108E5220108E922010800000000B0
:10002000000000000000000000000000ED220108B8
:10003000F122010800000000F522010885190108DD
:10004000F9220108FD220108012301080523010806
:10005000092301080D2301081123010815230108B4
:10006000192301081D230108E519010821230108AE
:1000700025230108292301082D2301083123010824
:1000800035230108392301083D2301080000000041
:1000900000000000000000000000000041230108F3
:1000A0009119010845230108492301084D2301083E
:1000B0009B19010851230108552301085923010800
:1000C0005D2301086123010865230108A5190108C2
:1000D000AF190108B91901086923010800000000DF
:1000E0006D23010871230108752301080000000039
:1000F000000000000000000000000000792301085B
:10010000000000007D2301088123010885230108E8
:1001100000000000000000000000000000000000DF
:10012000892301088D2301089123010895230108E3
:1001300099230108000000000000000000000000FA
:10014000000000000000000000000000C3190108CA
:100150009D230108A1230108A5230108A923010863
:10016000AD230108B12301080000000000000000D9
:10017000000000000000000000000000000000007F
:1001800000000000B523010800000000000000008E
:10019000B9230108F8B50400A7683D682E6820005F
:1001A00000F03BFD012801D101202FE004212000B7
:1001B00002F058FA002801D1012027E04021200058
:1001C00001F07DFF002801D101201FE00021200067
:1001D00002F0B8F9002801D1012017E0DFF8A409E6
:1001E00068600021200001F0F2FF002801D1012009
:1001F0000CE00021200000F0D6F9012801D10120F7
:1002000004E001203070012060710020F2BDF8B5DB
:100210000400A7683D682E68200000F0FEFC01285D
:1002200001D101203EE0200001F07AF8012801D13F
:10023000012037E0200001F045FC012801D1012018
:1002400030E0200001F0EEF8012801D1012029E082
:10025000200001F097FA012801D1012022E02000BE
:1002600001F055FB012801D101201BE0200001F025
:1002700078F9012801D1012014E0200001F0DDF916
:10028000012801D101200DE0200000F022F8012812
:1002900001D1012006E000206860002030700020BD
:1002A00060710020F2BD70B50400A6683568A079C1
:1002B000012801D100200BE095ED010A200000F09B
:1002C00071FD012801D1012002E00120A071002070
:1002D00070BD70B50400A6683568A079002801D10A
:1002E000002012E0291D200000F0A1F8012801D112
:1002F00001200AE00021200001F069FF002801D15F
:10030000012002E00020A071002070BD38B504007B
:100310000D002900200000F073FC32BD10B5040070
:10032000200000F07AFC10BD3EB504000D00002056
:10033000009001A9200000F0BDFC012801D101209E
:1003400032E06946200000F045F8012801D1012083
:100350002AE0BDF9040000EE100AB8EEC00ADDED97
:10036000000A20EE200ABDEEC00A85ED000ABDF9A4
:10037000060000EE100AB8EEC00ADDED000A20EE1D
:10038000200ABDEEC00A85ED010ABDF9080000EEA5
:10039000100AB8EEC00ADDED000A20EE200ABDEE1C
:1003A000C00A85ED020A00203EBD3EB504000D00E6
:1003B0006946200000F07EFC012801D1012008E000
:1003C000BDF8000028806846418869808088A88040
:1003D00000203EBD38B504000D006946200001F044
:1003E000B6FE002801D1012020E09DF80000002881
:1003F00006D0042810D0082806D00C2808D00FE01A
:10040000DFF86C0A286010E0DFF8680A28600CE06A
:10041000DFF8640A286008E0DFF8600A286004E07A
:10042000DFF8340B2860012000E0002032BD38B531
:1004300004000D006946200001F0EDFE002801D106
:10044000012049E09DF80000002814D0102815D0A4
:10045000202817D0302819D040281BD050281DD074
:1004600060281FD0702821D0802823D0902825D044
:10047000A02827D02AE0002028602CE0DFF8000A1E
:10048000286028E0DFF8FC09286024E0DFF8F8099C
:10049000286020E0DFF8EC0628601CE0DFF8EC09BB
:1004A000286018E0DFF8B40A286014E0DFF8B00A2A
:1004B000286010E0DFF8AC0A28600CE0DFF8A80A3A
:1004C000286008E0DFF8A40A286004E0DFF8880A62
:1004D0002860012000E0002032BD38B504000D0086
:1004E000A079012808D12900C9B2200000F009FC38
:1004F00001280AD1012009E02900C9B2200000F03A
:1005000025FC012801D1012000E0002032BD10B5FA
:100510002DED028B0400B0EE408AA079012808D1AD
:10052000B0EE480A200000F03DFC01280AD101206D
:1005300009E0B0EE480A200000F0AAFC012801D131
:10054000012000E00020BDEC028B10BD38B5040096
:100550000D006946200001F0FAFD002801D10120BC
:1005600020E09DF80000002806D0042810D00828BC
:1005700006D00C2808D00FE05FF08040286010E023
:100580005FF0814028600CE05FF08240286008E066
:100590005FF08340286004E0DFF8BC092860012098
:1005A00000E0002032BD70B504000D002800C0B28C
:1005B000002804D0022804D0042804D005E0002636
:1005C00005E0082603E00C2601E0012009E03100E7
:1005D000C9B2200001F097FD002801D1012000E000
:1005E000002070BD38B52DED028B0400B0EE408ABE
:1005F0009FED500AB4EE408AF1EE10FA01D50025C5
:1006000012E09FED4D0AB4EE408AF1EE10FA01D5EA
:10061000082509E09FED490AB4EE408AF1EE10FA90
:1006200001D50C2500E004252900C9B2200001F005
:100630006AFD002801D1012000E00020BDEC028B02
:1006400032BD70B504000D00160032002900C9B299
:10065000200000F0F8FA012801D1012000E000207C
:1006600070BD70B504000D0016003200D2B2290032
:10067000C9B2200000F0F8FA012801D1012000E001
:10068000002070BD38B504000D006946200002F05E
:1006900046FA002801D101200EE09DF80000002854
:1006A00004D0012805D10120287004E00020287022
:1006B00001E0012000E0002032BDF8B50400A76889
:1006C0003D682E68200000F0A8FA012801D1012021
:1006D0002FE00421200001F0C5FF002801D10120F6
:1006E00027E04021200001F0EAFC002801D1012090
:1006F0001FE00021200001F025FF002801D101208A
:1007000017E0DFF8440A68600021200001F0FAFDDC
:10071000002801D101200CE00421200000F0CCF9D8
:10072000012801D1012004E00120707001206071D6
:100730000020F2BD010000400100804001000041A6
:10074000F8B50400A7683D682E68200000F065FA3F
:10075000012801D101200DE0200000F022F801283D
:1007600001D1012006E000206860002070700020A8
:1007700060710020F2BD70B50400A6683568A079EC
:10078000012801D100200BE095ED010A200000F0C6
:1007900073FC012801D1012002E00120A07100209A
:1007A00070BD70B50400A6683568A079002801D135
:1007B000002012E0291D200000F0B2F8012801D12C
:1007C00001200AE00021200001F09CFD002801D159
:1007D000012002E00020A071002070BD38B50400A7
:1007E0000D002900200000F00BFA32BD10B5040006
:1007F000200000F012FA10BD3EB504000D000020EC
:10080000009001A9200000F0BBFB012801D10120CC
:1008100032E06946200000F045F8012801D10120AE
:100820002AE0BDF9040000EE100AB8EEC00ADDEDC2
:10083000000A20EE200ABDEEC00A85ED000ABDF9CF
:10084000060000EE100AB8EEC00ADDED000A20EE48
:10085000200ABDEEC00A85ED010ABDF9080000EED0
:10086000100AB8EEC00ADDED000A20EE200ABDEE47
:10087000C00A85ED020A00203EBD3EB504000D0011
:100880006946200000F07CFB012801D1012008E02E
:10089000BDF8000028806846418869808088A8806B
:1008A00000203EBD38B504000D000DF1010120000F
:1008B00001F083FD002801D1012030E09DF8010006
:1008C000022803D1DFF8100A286027E069462000DB
:1008D00001F0D8FC002801D1012020E09DF80000A3
:1008E000002806D0042808D008280AD00C280CD0EC
:1008F0000FE0DFF8E809286010E0DFF8E40928607D
:100900000CE0DFF8E409286008E0DFF8E00928607F
:1009100004E0DFF844062860012000E0002032BD3A
:1009200038B504000D006946200001F00FFD0028D5
:1009300001D1012048E09DF80000002814D01028C3
:1009400015D0202817D0302819D040281BD0502887
:100950001CD060281ED0702820D0802822D090285B
:1009600024D0A02826D029E0002028602BE0DFF842
:100970001005286027E0DFF80C05286023E0DFF889
:10098000080528601FE07F4828601CE0DFF8FC04B1
:10099000286018E0DFF8C405286014E0DFF8C0051F
:1009A000286010E0DFF8BC0528600CE0DFF8B8052F
:1009B000286008E0DFF8B405286004E0DFF8980557
:1009C0002860012000E0002032BD38B504000D0091
:1009D000A079012808D12900C9B2200000F0F7FA57
:1009E00001280AD1012009E02900C9B2200000F045
:1009F00013FB012801D1012000E0002032BD10B519
:100A00002DED028B0400B0EE408AA079012808D1B8
:100A1000B0EE480A200000F02FFB01280AD1012087
:100A200009E0B0EE480A200000F092FB012801D155
:100A3000012000E00020BDEC028B10BD38B50400A1
:100A40000D006946200001F0B8FC002801D101200A
:100A500031E00DF10101200001F014FC002801D16A
:100A6000012028E09DF80000022803D1DFF89C084F
:100A700028601FE09DF80100002806D0042808D057
:100A800008280AD00C280CD00FE0DFF88408286072
:100A900010E0DFF8800828600CE0DFF87C082860B0
:100AA00008E0DFF87808286004E0DFF8AC0428608C
:100AB000012000E0002032BD70B504000D002800C8
:100AC000C0B2002804D0022804D0042804D005E0D5
:100AD000002605E0042603E00C2601E0012009E0E1
:100AE0003100C9B2200001F0A9FB002801D101208A
:100AF00000E0002070BD000038B52DED028B040031
:100B0000B0EE408A9FEDA30AB4EE408AF1EE10FAEF
:100B100007D50221200001F02CFC00282ED1012055
:100B20002DE09FED9D0AB4EE408AF1EE10FA01D55A
:100B3000002512E09FED990AB4EE408AF1EE10FA1A
:100B400001D5042509E09FED960AB4EE408AF1EE46
:100B500010FA01D5082500E00C250021200001F045
:100B600008FC002801D1012009E02900C9B22000B9
:100B700001F064FB002801D1012000E00020BDEC61
:100B8000028B32BD0000D04270B504000D0016008B
:100B900032002900C9B2200000F055F8012801D127
:100BA000012000E0002070BD70B504000D001600AB
:100BB0003200D2B22900C9B2200000F055F8012855
:100BC00001D1012000E0002070BD38B504000D0007
:100BD0006946200001F0B6FF002801D101200EE097
:100BE0009DF80000002804D0022805D101202870BB
:100BF00004E00020287001E0012000E0002032BD68
:100C000038B504000D002900200001F045FA002845
:100C100001D1012000E0002032BD1CB504000020FD
:100C20008DF8000069462000FFF7EAFF012801D196
:100C3000012007E09DF800002178884201D00120C2
:100C400000E0002016BD70B504000D001600012361
:100C500032002900C9B2200001F0F8F9002801D1C2
:100C6000012000E0002070BD34B504000D00012318
:100C70006A462900C9B2200001F0FBF9002801D121
:100C8000012000E0002032BD38B504000D0028002E
:100C9000C0B20028012807D82900C9B2200002F0FC
:100CA00011F8002804D101E0012002E0012000E059
:100CB000002032BD7CB504000D00062100226E46E6
:100CC000300002F0F5FB6946200001F053FA0028DD
:100CD00001D1012014E06846417809029DF8002006
:100CE00051FA82F129809DF803100902827889184F
:100CF00069809DF80510090200790818A880002075
:100D000076BD70B504000D002800C0B2002806D0E2
:100D1000022808D005D3042809D006D309E01026FC
:100D200009E0102607E0202605E0302603E04026F3
:100D300001E0012009E03100C9B2200001F047FACA
:100D4000002801D1012000E0002070BD10B4020095
:100D5000946823680800C0B2002806D002280AD090
:100D600006D304280DD009D30FE0454858600EE0A3
:100D7000434858600BE04348586008E042485860D8
:100D800005E0DFF86C05586001E0012000E000207C
:100D900010BC70470100FA42010075430100FA439C
:100DA00001007A4438B52DED028B0400B0EE408A84
:100DB0009FED6F0AB4EE408AF1EE10FA01D51025CE
:100DC00048E09FED6C0AB4EE408AF1EE10FA01D5CE
:100DD00020253FE09FED680AB4EE408AF1EE10FA5C
:100DE00001D5302536E09FED650AB4EE408AF1EE7C
:100DF00010FA01D540252DE09FED9A0AB4EE408A05
:100E0000F1EE10FA01D5502524E09FED970AB4EEDB
:100E1000408AF1EE10FA01D560251BE09FED930AA0
:100E2000B4EE408AF1EE10FA01D5702512E09FED84
:100E3000900AB4EE408AF1EE10FA01D5802509E05F
:100E40009FED8C0AB4EE408AF1EE10FA01D59025A0
:100E500000E0A0252900C9B2200001F0B8F900285F
:100E600001D1012000E00020BDEC028B32BD00006A
:100E700023DB793D23DBF93D23DB793E23DBF93EA0
:100E8000000050410000D04100005042000050439B
:100E900001008B681A68DFED360AB4EE600AF1EEE5
:100EA00010FA02D5F2EE0A0A51E0DFED320AB4EE92
:100EB000600AF1EE10FA02D5F3EE0A0A47E0DFED20
:100EC0002E0AB4EE600AF1EE10FA02D5DFED9D0AAB
:100ED0003DE0DFED2A0AB4EE600AF1EE10FA02D529
:100EE000DFED990A33E0DFED5F0AB4EE600AF1EE60
:100EF00010FA02D5DFED950A29E0DFED5B0AB4EECA
:100F0000600AF1EE10FA02D5DFED140A1FE0DFED02
:100F1000570AB4EE600AF1EE10FA02D5DFED100ABE
:100F200015E0DFED530AB4EE600AF1EE10FA02D5D7
:100F3000DFED0C0A0BE0DFED4F0AB4EE600AF1EED4
:100F400010FA02D5DFED080A01E0DFED080AC2ED74
:100F5000010A002070470000000080BF0000D0435D
:100F6000004050440080CF44002050450020D04530
:100F7000010050410100D041010050420100D04227
:100F80007CB504000D00062100226E46300002F000
:100F90008FFA6946200001F088F9002801D101206C
:100FA00014E06846417809029DF8002051FA82F168
:100FB00029809DF8031009028278891869809DF8BC
:100FC0000510090200790818A880002076BD70B5C8
:100FD00004000D002800C0B2002806D0022808D066
:100FE00005D3042809D006D309E0102609E010260D
:100FF00007E0202605E0302603E0402601E001203E
:1010000009E03100C9B2200001F07CF9002801D1CB
:10101000012000E0002070BD10B402009468236835
:101020000800C0B2002806D002280CD007D304283C
:1010300010D00CD311E0DFF8840A58600FE0DFF81D
:101040007C0A58600BE0DFF8780A586007E03D48FA
:10105000586004E0A648586001E0012000E000204C
:1010600010BC7047010050430100D0430140504480
:101070000180CF440120504538B52DED028B04008E
:10108000B0EE408A9FED8B0AB4EE408AF1EE10FA82
:1010900001D5102548E09FED880AB4EE408AF1EEB4
:1010A00010FA01D520253FE09FED840AB4EE408A76
:1010B000F1EE10FA01D5302536E09FED810AB4EE4D
:1010C000408AF1EE10FA01D540252DE09FED7D0A12
:1010D000B4EE408AF1EE10FA01D5502524E09FEDE0
:1010E0007A0AB4EE408AF1EE10FA01D560251BE0D1
:1010F0009FED760AB4EE408AF1EE10FA01D5702524
:1011000012E09FED730AB4EE408AF1EE10FA01D5B9
:10111000802509E09FED6F0AB4EE408AF1EE10FAE7
:1011200001D5902500E0A0252900C9B2200001F0DA
:10113000E9F8002801D1012000E00020BDEC028B7D
:1011400032BD0000000050420000D0420000504379
:1011500001008B681A68DFED570AB4EE600AF1EE01
:1011600010FA02D5F2EE0A0A51E0DFED530AB4EEAE
:10117000600AF1EE10FA02D5F3EE0A0A47E0DFED5D
:101180004F0AB4EE600AF1EE10FA02D5DFED550A0F
:101190003DE0DFED4B0AB4EE600AF1EE10FA02D545
:1011A000DFED530A33E0DFED470AB4EE600AF1EEFB
:1011B00010FA02D5DFED4F0A29E0DFED430AB4EE65
:1011C000600AF1EE10FA02D5DFED4B0A1FE0DFED09
:1011D0003F0AB4EE600AF1EE10FA02D5DFED470ADD
:1011E00015E0DFED3B0AB4EE600AF1EE10FA02D52D
:1011F000DFED430A0BE0DFED370AB4EE600AF1EEF3
:1012000010FA02D5DFED3F0A01E0DFED3F0AC2ED43
:10121000010A00207047000010B504009FED360A57
:101220002000FFF774F9012801D1012040E00021DE
:10123000200000F068FF002801D1012038E00621DD
:10124000200001F090FF002801D1012030E00021B2
:10125000200001F03DFF002801D1012028E00021FD
:10126000200001F011FF002801D1012020E0002121
:10127000200001F0E3FE002801D1012018E0032145
:10128000200001F04CFF002801D1012010E0802156
:10129000200001F0A7FD002801D1012008E0102165
:1012A000200002F019F8002801D1012000E0002000
:1012B00010BD0000010050410100D041010050422A
:1012C0000100D042010050430100D043014050448E
:1012D0000180CF440120504500008C4000000C41AB
:1012E00000008C410000504200000C4200008C4283
:1012F0000000D042000050430000D0430040504462
:101300000080CF44002050450020D0450000FA4224
:10131000000075430000FA4300007A440000FA44DC
:1013200010B504000021200001F0D6FF002801D1F3
:10133000012018E00021200001F054FD002801D117
:10134000012010E00021200001F00DFF002801D154
:10135000012008E00021200001F0E1FE002801D179
:10136000012000E0002010BD38B504000D006946E2
:10137000200001F016FB002801D101200EE09DF8AD
:101380000000002804D0202805D10120287004E0A6
:101390000020287001E0012000E0002032BD38B5B7
:1013A00004000D002900C9B2200001F0B8FE002899
:1013B00001D1012000E0002032BD10B50400B3EEE1
:1013C0000A0A2000FFF7A3F8012801D1012028E034
:1013D0000021200000F097FE002801D1012020E02C
:1013E0001721200000F082F8012801D1012018E027
:1013F0000421200001F09EFA002801D1012010E014
:101400001021200001F072FA002801D1012008E02B
:101410008021200001F002F9002801D1012000E024
:10142000002010BD10B504000021200001F0F6F8E6
:10143000002801D1012018E00021200001F056FA17
:10144000002801D1012010E00021200001F072FAF3
:10145000002801D1012008E00021200000F046F81A
:10146000012801D1012000E0002010BD38B50400A2
:101470000D006946200001F0FFFB002801D101208A
:101480000EE09DF80000002804D0102805D10120AE
:10149000287004E00020287001E0012000E0002016
:1014A00032BD38B504000D002900200001F0ADFF69
:1014B000002801D1012000E0002032BD10B5040059
:1014C0000221200001F0CAF9002801D1012000E02A
:1014D000002010BD10B504000021200001F0BEF96D
:1014E000002801D1012000E0002010BD38B5040023
:1014F0000D002900C9B2200001F0B4FF002801D17D
:10150000012000E0002032BD10B50400B3EE0A0A4D
:101510002000FEF7FCFF012801D1012020E000217E
:10152000200000F0F0FD002801D1012018E0042186
:10153000200001F0FFF9002801D1012010E008216E
:10154000200001F0AFF9002801D1012008E00221BC
:10155000200001F055FE002801D1012000E000200C
:1015600010BD10B504000021200001F049FE002844
:1015700001D1012010E00021200001F093F90028A2
:1015800001D1012008E00021200001F0D3F900285A
:1015900001D1012000E0002010BD38B504000D008D
:1015A0006946200001F07BFB002801D101200EE0FC
:1015B0009DF80000002804D0202805D101202870C3
:1015C00004E00020287001E0012000E0002032BD8E
:1015D00010B504009FED6A0A2000FEF798FF01286D
:1015E00001D1012028E00021200000F08CFD00281E
:1015F00001D1012020E00021200001F069FD002838
:1016000001D1012018E00221200001F0CDFC0028CA
:1016100001D1012010E08021200001F0E3FB00282F
:1016200001D1012008E02021200001F079FE0028EE
:1016300001D1012000E0002010BD10B50400002100
:10164000200001F06DFE002801D1012018E00021EA
:10165000200001F0C7FB002801D1012010E000218B
:10166000200001F035FD002801D1012008E0002113
:10167000200001F099FC002801D1012000E00020A9
:1016800010BD38B504000D006946200001F076F960
:10169000002801D101200EE09DF80000002804D0B0
:1016A000082805D10120287004E00020287001E0FE
:1016B000012000E0002032BD38B504000D002900F3
:1016C000C9B2200001F070FC002801D1012000E027
:1016D000002032BD10B504009FED290A2000FEF75E
:1016E00016FF012801D1012048E00021200000F070
:1016F0000AFD002801D1012040E00821200001F06E
:101700004DFB002801D1012038E00421200001F028
:1017100021FB002801D1012030E00221200001F04E
:10172000F5FA002801D1012028E00821200000F06E
:101730005DF9012801D1012020E00221200000F004
:1017400063F9012801D1012018E00121200000F0F7
:1017500069F9012801D1012010E08021200001F069
:1017600041FB002801D1012008E04021200001F0C8
:10177000FBFD002801D1012000E0002010BD000089
:101780000000D04310B504000021200001F0ECFD62
:10179000002801D1012038E00021200001F022FBC7
:1017A000002801D1012030E00021200000F01EF9C6
:1017B000012801D1012028E00021200000F024F9B7
:1017C000012801D1012020E00021200000F02AF9A9
:1017D000012801D1012018E00021200001F096FA33
:1017E000002801D1012010E00021200001F0B2FA10
:1017F000002801D1012008E00021200001F0CEFAEC
:10180000002801D1012000E0002010BD38B50400FF
:101810000D006946200001F0EAF8002801D10120FE
:101820000EE09DF80000002804D0202805D10120FA
:10183000287004E00020287001E0012000E0002072
:1018400032BD000010B504009FED9B0A2000FEF79A
:101850005EFE012801D1012058E00021200000F0A7
:1018600052FC002801D1012050E00821200001F0A5
:1018700095FA002801D1012048E00421200001F060
:1018800069FA002801D1012040E00221200001F086
:101890003DFA002801D1012038E00821200000F0A5
:1018A000A5F8012801D1012030E00321200000F03B
:1018B000ABF8012801D1012028E00321200000F02D
:1018C000B1F8012801D1012020E00821200000F01A
:1018D000B7F8012801D1012018E08021200001F093
:1018E00089FB002801D1012010E08021200001F0B7
:1018F00079FA002801D1012008E00821200001F038
:10190000C7FC002801D1012000E0002010BD10B567
:1019100004000021200001F0BBFC002801D10120BF
:1019200048E00021200001F05DFA002801D10120EB
:1019300040E00021200000F059F8012801D10120E9
:1019400038E00021200000F05FF8012801D10120DB
:1019500030E00021200000F065F8012801D10120CD
:1019600028E00021200000F06BF8012801D10120BF
:1019700020E00021200001F03DFB002801D10120E2
:1019800018E00021200001F0C1F9002801D1012058
:1019900010E00021200001F0DDF9002801D1012034
:1019A00008E00021200001F0F9F9002801D1012010
:1019B00000E0002010BD38B504000D00694620008D
:1019C00001F002F8002801D101200EE09DF800008E
:1019D000002804D0102805D10120287004E0002040
:1019E000287001E0012000E0002032BD38B504007D
:1019F0000D002900C9B2200001F018FA002801D119
:101A0000012000E0002032BD38B504000D0029009F
:101A1000C9B2200001F054FA002801D1012000E0F1
:101A2000002032BD38B504000D002900C9B22000E5
:101A300001F06CFA002801D1012000E0002032BD45
:101A400038B504000D002900C9B2200001F085FA64
:101A5000002801D1012000E0002032BD10B50400B3
:101A60009FED150A2000FEF752FD012801D101204B
:101A700020E00021200000F046FB002801D10120D9
:101A800018E04021200001F0F7F9002801D10120E1
:101A900010E08021200001F0A5F9002801D10120EB
:101AA00008E00421200001F0CFFB002801D1012033
:101AB00000E0002010BD00000000D04300005041B5
:101AC0000000D04110B504000021200001F0BCFB53
:101AD000002801D1012010E00021200001F082F94E
:101AE000002801D1012008E00021200001F0C4F904
:101AF000002801D1012000E0002010BD38B504000D
:101B00000D006946200000F0F7FF002801D10120F8
:101B10000EE09DF80000002804D0402805D10120E7
:101B2000287004E00020287001E0012000E000207F
:101B300032BD38B504000D006946200000F06AFF90
:101B4000002801D101200EE09DF80000002804D0FB
:101B5000012805D10120287004E00020287001E050
:101B6000012000E0002032BD38B504000D006946B8
:101B7000200000F062FF002801D101200EE09DF856
:101B80000000002804D0022805D10120287004E0BC
:101B90000020287001E0012000E0002032BD38B5AF
:101BA00004000D006946200000F05AFF002801D112
:101BB00001200EE09DF80000002804D0042805D183
:101BC0000120287004E00020287001E0012000E0DE
:101BD000002032BD38B504000D006946200000F039
:101BE00052FF002801D101200EE09DF800000028DE
:101BF00004D0082805D10120287004E000202870B6
:101C000001E0012000E0002032BD38B504000D00E5
:101C10006946200000F04AFF002801D101200EE0B3
:101C20009DF80000002804D0102805D1012028705C
:101C300004E00020287001E0012000E0002032BD17
:101C400038B504000D006946200000F042FF00286E
:101C500001D101200EE09DF80000002804D02028CA
:101C600005D10120287004E00020287001E0012047
:101C700000E0002032BD000038B52DED028B0400DD
:101C8000B0EE408A9FED2F0AB4EE408AF1EE10FAD2
:101C900001D5082548E09FED2C0AB4EE408AF1EE0C
:101CA00010FA01D510253FE09FED280AB4EE408AD6
:101CB000F1EE10FA01D5182536E09FED250AB4EEB5
:101CC000408AF1EE10FA01D520252DE09FED210A82
:101CD000B4EE408AF1EE10FA01D5282524E09FEDFC
:101CE0001E0AB4EE408AF1EE10FA01D530251BE051
:101CF0009FED1A0AB4EE408AF1EE10FA01D53825AC
:101D000012E09FED170AB4EE408AF1EE10FA01D509
:101D1000402509E09FED130AB4EE408AF1EE10FA77
:101D200001D5482500E050252900C9B2200000F067
:101D30002DFC002801D1012000E00020BDEC028B29
:101D400032BD0000010020410100C84101004842AD
:101D50000100C842010048430100C8430100484453
:101D60000100C84401404E4538B504000D006946E5
:101D7000200000F034FF002801D101200FE09DF881
:101D80000000002802D0202803D005E000202870A1
:101D900004E00120287001E0012000E0002032BDB5
:101DA00038B504000D006946200000F005FF00284A
:101DB00001D101200FE09DF80000002802D010287A
:101DC00003D005E00020287004E00120287001E025
:101DD000012000E0002032BD38B504000D00694646
:101DE000200000F00FFF002801D101200FE09DF836
:101DF0000000002802D0402803D005E00020287011
:101E000004E00120287001E0012000E0002032BD44
:101E100038B504000D002900200000F006FF00285E
:101E200001D1012000E0002032BD38B504000D00D2
:101E30002900200001F0BCFA002801D1012000E0B7
:101E4000002032BD38B504000D002900200000F04C
:101E50008CFE002801D1012000E0002032BD38B501
:101E600004000D002800C0B20028072807D8290068
:101E7000C9B2200000F01EFB002804D101E00120BF
:101E800002E0012000E0002032BDFEB504000D009C
:101E900000260020019069462000FFF7C6FF0128B8
:101EA00001D101201CE09DF801009DF8007057EA67
:101EB000002701A92000FEF78DFA012801D1012099
:101EC0000EE0380000B200EE100AB8EEC00ADDEDF8
:101ED000010A20EE200ABDEEC00A85ED000A0020AE
:101EE000FEBD38B504000D002800C0B2002801284E
:101EF00004D9C01E012801D9C01E07D12900C9B2CA
:101F0000200000F01FFB002804D101E0012002E0C6
:101F1000012000E0002032BD38B504000D0028008B
:101F2000C0B2002801D0202807D12900C9B2200062
:101F300000F050FB002804D101E0012002E0012064
:101F400000E0002032BD38B504000D00290089B240
:101F5000200000F069FA002801D1012000E00020F3
:101F600032BD38B504000D002800C0B2002801D0F1
:101F7000802807D12900C9B2200000F0BFFA00284C
:101F800004D101E0012002E0012000E0002032BD88
:101F900038B504000D002900C9B22000FEF774FE18
:101FA00032BD38B504000D002800C0B20028032857
:101FB00007D82900C9B2200000F09CFB002804D1FA
:101FC00001E0012002E0012000E0002032BDF0B479
:101FD0000246106895681318506803EB5004C00758
:101FE00048BF4D44A3422DD013F8016B16F00300F7
:101FF00004BF13F8010BC01C31090F2907D113F8D6
:10200000011B0F3103E013F8017B05F8017B401E33
:10201000F9D10029E6D013F8010BC6F38106032E8F
:1020200008BF13F8016B00EB06204042284400264D
:10203000B71E8F421EBF10F8017B05F8017B761C8E
:10204000F6D1CFE7F0BC02F10C007047F8B5040000
:102050000D0016001F003B009BB232002900C9B2E0
:10206000200001F024FC002801D0002000E0012025
:10207000F2BDF8B504000D0016001F003B009BB236
:1020800032002900C9B2200001F003FC002801D071
:10209000002000E00120F2BD38B504000D0001234E
:1020A0002A000F212000FFF7D1FF002801D10020D6
:1020B00004E02878287028782870012032BD38B5CF
:1020C00004000D0001236A4612212000FFF7BEFF25
:1020D000002801D1002015E09DF8000010F0BF009D
:1020E0008DF800009DF8000028438DF800000123C2
:1020F0006A4612212000FFF7BCFF002801D1002012
:1021000000E0012032BD38B504000D0001236A460D
:1021100010212000FFF79AFF002801D1002015E0D0
:102120009DF8000010F0F3008DF800009DF800000D
:1021300028438DF8000001236A4610212000FFF794
:1021400098FF002801D1002000E0012032BD38B501
:1021500004000D0001232A0010212000FFF776FF64
:10216000002801D1002004E0287810F00C0028702D
:10217000012032BD2DE9F84304000D00022600279E
:102180005FF000084046C0B203281DDA00208146F7
:1021900048463100C0B2C9B2884212D20123380089
:1021A000C0B205EB000217F12801C9B22000FFF709
:1021B0004DFF002801D1002007E07F1C19F1010923
:1021C000E6E718F10108DDE70120BDE8F28338B544
:1021D00004000D0001236A4610212000FFF736FF9E
:1021E000002801D1002015E09DF8000010F00F003C
:1021F0008DF800009DF8000028438DF800000123B1
:102200006A4610212000FFF734FF002801D100208A
:1022100000E0012032BD38B504000D0001232A0082
:1022200010212000FFF712FF002801D1002004E058
:10223000287810F0F0002870012032BD38B5040075
:102240000D0001236A4611212000FFF7FFFE002840
:1022500001D1002015E09DF8000010F0F3008DF88A
:1022600000009DF8000028438DF8000001236A4615
:1022700011212000FFF7FDFE002801D1002000E021
:10228000012032BD38B504000D0001232A001121C0
:102290002000FFF7DBFE002801D1002004E02878B1
:1022A00010F00C002870012032BD2DE9F843040025
:1022B0000D00022600275FF000084046C0B2032848
:1022C0001DDA0020814648463100C0B2C9B28842BA
:1022D00012D201233800C0B205EB000217F122012F
:1022E000C9B22000FFF7B2FE002801D1002007E0AC
:1022F0007F1C19F10109E6E718F10108DDE701206B
:10230000BDE8F28338B504000D0001236A461121AF
:102310002000FFF79BFE002801D1002015E09DF86A
:10232000000010F00F008DF800009DF80000284319
:102330008DF8000001236A4611212000FFF799FE65
:10234000002801D1002000E0012032BD38B5040092
:102350000D0001232A0011212000FFF777FE00283D
:1023600001D1002004E0287810F0F000287001204E
:1023700032BD38B504000D0001236A46112120004A
:10238000FFF764FE002801D1002015E09DF8000051
:1023900010F0FD008DF800009DF8000028438DF836
:1023A000000001236A4611212000FFF762FE002889
:1023B00001D1002000E0012032BD38B504000D003D
:1023C00001232A0011212000FFF740FE002801D13F
:1023D000002004E0287810F002002870012032BDAF
:1023E00038B504000D0001236A4601212000FFF7E3
:1023F0002DFE002801D1002015E09DF8000010F00E
:102400007F008DF800009DF8000028438DF8000043
:1024100001236A4601212000FFF72BFE002801D18D
:10242000002000E0012032BDF8B504000D002F00AF
:102430002E00B6B2360A01236A4606212000FFF7B5
:1024400005FE002801D1002033E000208DF80000B7
:102450009DF8000038438DF8000001236A460621EC
:102460002000FFF706FE002801D1002021E016F031
:10247000070601236A4607212000FFF7E7FD002831
:1024800001D1002015E09DF8000010F0F8008DF853
:1024900000009DF8000030438DF8000001236A46DB
:1024A00007212000FFF7E5FD002801D1002000E012
:1024B0000120F2BD38B504000D0001236A46082151
:1024C0002000FFF7C3FD002801D1002015E09DF892
:1024D000000010F0F8008DF800009DF8000028437F
:1024E0008DF8000001236A4608212000FFF7C1FD96
:1024F000002801D1002000E0012032BD38B50400E1
:102500000D0001236A4609212000FFF79FFD0028E6
:1025100001D1002015E09DF8000010F07F008DF83B
:1025200000009DF8000028438DF8000001236A4652
:1025300009212000FFF79DFD002801D1002000E0C7
:10254000012032BD38B504000D0001236A460A217E
:102550002000FFF77BFD002801D1002015E09DF849
:10256000000010F0F8008DF800009DF800002843EE
:102570008DF8000001236A460A212000FFF779FD4B
:10258000002801D1002000E0012032BD38B5040050
:102590000D0001236A460A212000FFF757FD00289D
:1025A00001D1002015E09DF8000010F087008DF8A3
:1025B00000009DF8000028438DF8000001236A46C2
:1025C0000A212000FFF755FD002801D1002000E07E
:1025D000012032BD38B504000D0001236A460D21EB
:1025E0002000FFF733FD002801D1002015E09DF801
:1025F000000010F0DF008DF800009DF80000284377
:102600008DF8000001236A460D212000FFF731FDFF
:10261000002801D1002000E0012032BD38B50400BF
:102620000D0001236A460D212000FFF70FFD002851
:1026300001D1002015E09DF8000010F07F008DF81A
:1026400000009DF8000028438DF8000001236A4631
:102650000D212000FFF70DFD002801D1002000E032
:10266000012032BD38B504000D0001236A46122155
:102670002000FFF7EBFC002801D1002015E09DF8B9
:10268000000010F0FB008DF800009DF800002843CA
:102690008DF8000001236A4612212000FFF7E9FCB3
:1026A000002801D1002000E0012032BD38B504002F
:1026B0000D0001236A4613212000FFF7C7FC002804
:1026C00001D1002015E09DF8000010F0FB008DF80E
:1026D00000009DF8000028438DF8000001236A46A1
:1026E00013212000FFF7C5FC002801D1002000E0E5
:1026F000012032BD38B504000D0001236A461421C3
:102700002000FFF7A3FC002801D1002015E09DF870
:10271000000010F0FC008DF800009DF80000284338
:102720008DF8000001236A4614212000FFF7A1FC68
:10273000002801D1002000E0012032BD38B504009E
:102740000D0001236A4615212000FFF77FFC0028B9
:1027500001D1002015E09DF8000010F0FC008DF87C
:1027600000009DF8000028438DF8000001236A4610
:1027700015212000FFF77DFC002801D1002000E09A
:10278000012032BD38B504000D0001236A4617212F
:102790002000FFF75BFC002801D1002015E09DF828
:1027A000000010F07F008DF800009DF80000284325
:1027B0008DF8000001236A4617212000FFF759FC1D
:1027C000002801D1002000E0012032BD38B504000E
:1027D0000D0001236A4617212000FFF737FC00286F
:1027E00001D1002015E09DF8000010F09F008DF849
:1027F00000009DF8000028438DF8000001236A4680
:1028000017212000FFF735FC002801D1002000E04F
:10281000012032BD38B504000D0001236A4617219E
:102820002000FFF713FC002801D1002015E09DF8DF
:10283000000010F07F008DF800009DF80000284394
:102840008DF8000001236A4617212000FFF711FCD4
:10285000002801D1002000E0012032BD38B504007D
:102860000D0001236A4619212000FFF7EFFB002825
:1028700001D1002015E09DF8000010F0FD008DF85A
:1028800000009DF8000028438DF8000001236A46EF
:1028900019212000FFF7EDFB002801D1002000E006
:1028A000012032BD38B504000D0001236A4619210C
:1028B0002000FFF7CBFB002801D1002015E09DF898
:1028C000000010F0F7008DF800009DF8000028438C
:1028D0008DF8000001236A4619212000FFF7C9FB8B
:1028E000002801D1002000E0012032BD38B50400ED
:1028F0000D0001236A4619212000FFF7A7FB0028DD
:1029000001D1002015E09DF8000010F0EF008DF8D7
:1029100000009DF8000028438DF8000001236A465E
:1029200019212000FFF7A5FB002801D1002000E0BD
:10293000012032BD38B504000D0001236A4619217B
:102940002000FFF783FB002801D1002015E09DF84F
:10295000000010F0FB008DF800009DF800002843F7
:102960008DF8000001236A4619212000FFF781FB42
:10297000002801D1002000E0012032BD38B504005C
:102980000D0001232A001B212000FFF75FFB002818
:1029900001D1002004E0287810F008002870012000
:1029A00032BD38B504000D0001232A001B21200090
:1029B000FFF74CFB002801D1002004E0287810F03C
:1029C00020002870012032BD38B504000D0001231D
:1029D0002A001C212000FFF739FB002801D100202C
:1029E00004E0287810F010002870012032BD38B5BE
:1029F00004000D0001232A001C212000FFF726FB04
:102A0000002801D1002004E0287810F02000287070
:102A1000012032BD38B504000D0001232A001D211C
:102A20002000FFF713FB002801D1002004E02878E4
:102A300010F001002870012032BD38B504000D00EF
:102A400001232A001D212000FFF700FB002801D1EF
:102A5000002004E0287810F002002870012032BD28
:102A600038B504000D0001232A001D212000FFF7C6
:102A7000EDFA002801D1002004E0287810F00400CD
:102A80002870012032BD38B504000D0001232A0052
:102A90001D212000FFF7DAFA002801D1002004E010
:102AA000287810F008002870012032BD38B50400E5
:102AB0000D0001232A001D212000FFF7C7FA00287E
:102AC00001D1002004E0287810F0100028700120C7
:102AD00032BD38B504000D0001232A001D2120005D
:102AE000FFF7B4FA002801D1002004E0287810F0A4
:102AF00020002870012032BD38B504000D000123EC
:102B00002A001D212000FFF7A1FA002801D1002092
:102B100004E0287810F040002870012032BD38B55C
:102B200004000D0001232A001E212000FFF78EFA69
:102B3000002801D1002004E0287810F0010028705E
:102B4000012032BD38B504000D0001232A001E21EA
:102B50002000FFF77BFA002801D1002004E028784C
:102B600010F002002870012032BD38B504000D00BD
:102B700001236A463A212000FFF768FA002801D1B4
:102B8000002018E001230DF101023B212000FFF796
:102B90005DFA002801D100200DE09DF8010010F041
:102BA0000F008DF801009DF801009DF8001051EA1A
:102BB00000212980012032BD38B504000D00012319
:102BC0002A003B212000FFF741FA002801D1002014
:102BD00004E0287810F010002870012032BD38B5CC
:102BE00004000D0001232A003B212000FFF72EFAEC
:102BF000002801D1002004E0287810F0200028707F
:102C0000012032BD38B504000D0001232A003B210C
:102C10002000FFF71BFA002801D1002004E02878EB
:102C200010F040002870012032BD38B504000D00BE
:102C300001236A463C212000FFF708FA002801D151
:102C4000002018E001230DF101023D212000FFF7D3
:102C5000FDF9002801D100200DE09DF8010010F0E1
:102C600003008DF801009DF801009DF8001051EA65
:102C700000212980012032BD38B504000D00012358
:102C80002A0053212000FFF7E1F9002801D100209C
:102C900004E0287810F010002870012032BD38B50B
:102CA00004000D0001232A0053212000FFF7CEF974
:102CB000002801D1002004E0287810F020002870BE
:102CC000012032BD38B504000D0001236A465821A9
:102CD0002000FFF7BBF9002801D1002015E09DF886
:102CE000000010F0FE008DF800009DF80000284361
:102CF0008DF8000001236A4658212000FFF7B9F93A
:102D0000002801D1002000E0012032BD38B50400C8
:102D10000D0001236A4658212000FFF797F900288B
:102D200001D1002015E09DF8000010F0FD008DF8A5
:102D300000009DF8000028438DF8000001236A463A
:102D400058212000FFF795F9002801D1002000E06C
:102D5000012032BD38B504000D0001236A46582118
:102D60002000FFF773F9002801D1002015E09DF83D
:102D7000000010F0FB008DF800009DF800002843D3
:102D80008DF8000001236A4658212000FFF771F9F1
:102D9000002801D1002000E0012032BD38B5040038
:102DA0000D0001236A4658212000FFF74FF9002843
:102DB00001D1002015E09DF8000010F0F7008DF81B
:102DC00000009DF8000028438DF8000001236A46AA
:102DD00058212000FFF74DF9002801D1002000E024
:102DE000012032BD38B504000D0001236A46582188
:102DF0002000FFF72BF9002801D1002015E09DF8F5
:102E0000000010F07F008DF800009DF800002843BE
:102E10008DF8000001236A4658212000FFF729F9A8
:102E2000002801D1002000E0012032BD38B50400A7
:102E30000D0015F01F0501236A4659212000FFF7F8
:102E400005F9002801D1002015E09DF8000010F0E0
:102E5000E0008DF800009DF8000028438DF8000088
:102E600001236A4659212000FFF703F9002801D108
:102E7000002000E0012032BD38B504000D00012320
:102E80006A4659212000FFF7E1F8002801D100200F
:102E900015E09DF8000010F09F008DF800009DF8EF
:102EA000000028438DF8000001236A4659212000C4
:102EB000FFF7DFF8002801D1002000E0012032BD3B
:102EC00038B504000D0015F0030501236A465A21A8
:102ED0002000FFF7BBF8002801D1002015E09DF885
:102EE000000010F0FC008DF800009DF80000284361
:102EF0008DF8000001236A465A212000FFF7B9F837
:102F0000002801D1002000E0012032BD38B50400C6
:102F10000D00AD0015F00C0501236A465A21200072
:102F2000FFF794F8002801D1002015E09DF800007B
:102F300010F0F3008DF800009DF8000028438DF894
:102F4000000001236A465A212000FFF792F800286A
:102F500001D1002000E0012032BD38B504000D0091
:102F60002D0115F0F00501236A465A212000FFF7D4
:102F70006DF8002801D1002015E09DF8000010F048
:102F80000F008DF800009DF8000028438DF8000028
:102F900001236A465A212000FFF76BF8002801D16F
:102FA000002000E0012032BD38B504000D0015F00E
:102FB0003F0501236A465B212000FFF747F8002800
:102FC00001D1002015E09DF8000010F0C0008DF840
:102FD00000009DF8000028438DF8000001236A4698
:102FE0005B212000FFF745F8002801D1002000E018
:102FF000012032BD38B504000D0001236A465B2173
:103000002000FFF723F8002801D1002015E09DF8EB
:10301000000010F07F008DF800009DF800002843AC
:103020008DF8000001236A465B212000FFF721F89C
:10303000002801D1002000E0012032BD38B5040095
:103040000D0015F00F0501236A465C212000FEF7F4
:10305000FDFF002801D1002015E09DF8000010F0D0
:10306000F0008DF800009DF8000028438DF8000066
:1030700001236A465C212000FEF7FBFF002801D1F6
:10308000002000E0012032BD38B504000D0001230E
:103090006A465C212000FEF7D9FF002801D10020FC
:1030A00015E09DF8000010F0EF008DF800009DF88D
:1030B000000028438DF8000001236A465C212000AF
:1030C000FEF7D7FF002801D1002000E0012032BD2B
:1030D00038B504000D006D0115F0600501236A4646
:1030E0005C212000FEF7B2FF002801D1002015E08E
:1030F0009DF8000010F09F008DF800009DF8000082
:1031000028438DF8000001236A465C212000FEF769
:10311000B0FF002801D1002000E0012032BD38B509
:1031200004000D0001236A465D212000FEF78EFF9A
:10313000002801D1002015E09DF8000010F0F800F3
:103140008DF800009DF8000028438DF80000012351
:103150006A465D212000FEF78CFF002801D1002087
:1031600000E0012032BDF8B504000D0015F01F0786
:10317000C5F34016FF0017F0F80701236A465D21EA
:103180002000FEF763FF002801D1002037E09DF802
:10319000000010F007008DF800009DF80000384393
:1031A0008DF8000001236A465D212000FEF761FFD3
:1031B000002801D1002022E0F60116F0800601234C
:1031C0006A465C212000FEF741FF002801D1002063
:1031D00015E09DF8000010F07F008DF800009DF8CC
:1031E000000030438DF8000001236A465C21200076
:1031F000FEF73FFF002801D1002000E00120F2BDD2
:1032000038B504000D0001236A465E212000FEF758
:103210001DFF002801D1002015E09DF8000010F0EE
:10322000FD008DF800009DF8000028438DF8000097
:1032300001236A465E212000FEF71BFF002801D112
:10324000002000E0012032BD38B504000D0001234C
:103250006A465E212000FEF7F9FE002801D1002019
:1032600015E09DF8000010F0FB008DF800009DF8BF
:10327000000028438DF8000001236A465E212000EB
:10328000FEF7F7FE002801D1002000E0012032BD4A
:1032900038B504000D0001236A465E212000FEF7C8
:1032A000D5FE002801D1002015E09DF8000010F0A7
:1032B000F7008DF800009DF8000028438DF800000D
:1032C00001236A465E212000FEF7D3FE002801D1CB
:1032D000002000E0012032BD38B504000D000123BC
:1032E0006A465E212000FEF7B1FE002801D10020D1
:1032F00015E09DF8000010F0EF008DF800009DF83B
:10330000000028438DF8000001236A465E2120005A
:10331000FEF7AFFE002801D1002000E0012032BD01
:1033200038B504000D0001236A465E212000FEF737
:103330008DFE002801D1002015E09DF8000010F05E
:10334000DF008DF800009DF8000028438DF8000094
:1033500001236A465E212000FEF78BFE002801D182
:10336000002000E0012032BD38B504000D0001232B
:103370006A465E212000FEF769FE002801D1002088
:1033800015E09DF8000010F0BF008DF800009DF8DA
:10339000000028438DF8000001236A465E212000CA
:1033A000FEF767FE002801D1002000E0012032BDB9
:1033B0002DE9F84304000D00022600275FF0000805
:1033C0004046C0B200281DD1002081464846310049
:1033D000C0B2C9B2884212D201233800C0B205EB94
:1033E000000217F13E01C9B22000FEF72FFE0028AF
:1033F00001D1002007E07F1C19F10109E6E718F16F
:103400000108DDE70120BDE8F2832DE9F84304005F
:103410000D00022600275FF000084046C0B20028D9
:103420001DD10020814648463100C0B2C9B2884251
:1034300012D201233800C0B205EB000217F14B0194
:10344000C9B22000FEF702FE002801D1002007E0EB
:103450007F1C19F10109E6E718F10108DDE70120F9
:10346000BDE8F28338B504000D0080212000FEF78E
:10347000B7FF01236A460F212000FEF7E7FD9DF804
:10348000000010F0E0008DF800009DF8001015F02D
:103490001F0001438DF8001001236A460F21200010
:1034A000FEF7E7FD00212000FEF79AFF012032BD64
:1034B00062F30F2262F31F42401810F0030308D09A
:1034C000C91A1FD3DB0748BF00F8012D28BF20F819
:1034D000022D130030B414461546103928BF20E9D8
:1034E0003C00FAD8490728BF20E90C0048BF40F843
:1034F000042D890028BF20F8022D48BF00F8012DB7
:1035000030BC7047C91818BF00F8012DCB0728BF81
:1035100000F8012D70478268521C8260426832B107
:103520000268531C036011704168491E4160704776
:1035300010B586B004002000C0B200280CD10020D5
:103540000090DFF82405016851F002010160006875
:1035500010F00200009000982000C0B201280CD1A9
:1035600000200090DFF80005016851F002010160C1
:10357000006810F0020000900098DFF8F0042100CD
:10358000C9B250F821000190012002900020039060
:103590000220049001A9DFF8D8042200D2B250F82A
:1035A000220000F059FB06B010BD10B50400002247
:1035B000DFF8B8042100C9B250F8211089B2DFF851
:1035C000B0042300DBB250F8230000F03DFC10BD36
:1035D00010B504000122DFF894042100C9B250F8AC
:1035E000211089B2DFF888042300DBB250F82300F1
:1035F00000F02AFC10BD10B50400DFF870042100B3
:10360000C9B250F8211089B2DFF864042200D2B2A6
:1036100050F8220000F025FC10BD70B586B0DFF830
:103620005444200000F02EFE00285CD100200090C1
:10363000DFF84404016851F480410160006810F42F
:1036400080400090009800200090DFF81C04016882
:1036500051F002010160006810F002000090009833
:103660004FF40045019502200290002003900320B2
:10367000049005200590DFF8046401A9300000F0F3
:10368000EBFA4FF4005001900020039001A93000A4
:1036900000F0E2FADFF8E80320604FF48270606027
:1036A000A5600020E06002202061012060614FF4ED
:1036B0000070A0611820E06100202062002060629C
:1036C0000020A0620720E062200000F0F9FB2068E3
:1036D000006850F48040216808602068006850F05D
:1036E000400021680860002006B070BDF8B586B0C3
:1036F000DFF8907301224FF48071380000F0A4FBD2
:10370000DFF8844301224FF40051200000F09CFBBD
:10371000DFF8685301224FF48051280000F094FB39
:1037200003200490002003900120029000200090CC
:10373000CD4E306850F001003060306810F001006C
:10374000009000984FF48070019001A9380000F0BB
:1037500083FA01224FF48071380000F075FB0020DD
:103760000090306850F002003060306810F00200C5
:10377000009000984FF48050019001A9280000F0BB
:103780006BFA01224FF48051280000F05DFB00200D
:103790000090306850F004003060306810F0040091
:1037A000009000984FF40050019001A9200000F013
:1037B00053FA01224FF40051200000F045FB002095
:1037C00007B0F0BD70B586B004002500032004905A
:1037D0000020039001200290E878002803D00228FE
:1037E00037D01BD350E0002000909F48016851F073
:1037F00001010160006810F00100009000984FF492
:10380000807001909F4E01224FF48071300000F0D3
:103810001BFB01A9300000F01FFA37E000200090E8
:103820009148016851F002010160006810F0020047
:10383000009000984FF480500190904E01224FF478
:103840008051300000F000FB01A9300000F004FAC4
:103850001CE0002000908448016851F004010160E0
:10386000006810F00400009000984FF400500190A0
:10387000854E01224FF40051300000F0E5FA01A915
:10388000300000F0E9F901E0032000E0002006B07C
:1038900070BDF8B504000D0016001F003B009BB280
:1038A00032002900C9B2200000F030F8F2BD2DE945
:1038B000F0410400884615001E0027007878002893
:1038C00008D1300080B2022804DB3878BC2801D14E
:1038D00058F080087878012815D1300080B202288D
:1038E00008DB3878332802D0402803D002E058F0B3
:1038F0004008FFE733009BB22A004146C9B22000CE
:1039000000F02CF800E00120BDE8F0812DE9F8433B
:1039100004000D0016001F00200000F065F8DFF81D
:1039200054812900C9B2404600F080F95FF00009D7
:103930004846C0B2390080B289B2884208D24846AF
:10394000C0B2315C404600F071F919F10109EFE7AE
:10395000200000F069F80020BDE8F2832DE9F04175
:1039600004000D0016001F00200000F03DF8DFF8F5
:10397000048155F08001C9B2404600F057F9D8F8EB
:103980000000006830F04000D8F800100860D8F857
:103990000000006830F48040D8F80010086038005B
:1039A00080B2022806D33A0092B23100404600F0BD
:1039B0000FF903E03100404600F06AF8200000F003
:1039C00033F8D8F80000006850F48040D8F80010B0
:1039D0000860D8F80000006850F04000D8F80010E7
:1039E00008600020BDE8F08138B504002500E878C3
:1039F000002803D002280FD007D313E000224FF491
:103A00008071204800F020FA0CE000224FF4805131
:103A10001A4800F019FA05E000224FF400511A4844
:103A200000F012FA002032BD38B504002500E87815
:103A3000002803D002280FD007D313E001224FF44F
:103A40008071104800F000FA0CE001224FF4805120
:103A50000A4800F0F9F905E001224FF400510A4844
:103A600000F0F2F9002032BD30380240C0220108D7
:103A70008C020020C00B00204038024000040240AD
:103A8000003800400000024000080240002070475B
:103A900072B60268126852F0400203681A60BFF3FF
:103AA0004F8FBFF34F8FBFF34F8FBFF34F8FBFF3D6
:103AB0004F8FBFF34F8FBFF34F8FBFF34F8FBFF3C6
:103AC0004F8FBFF34F8FBFF34F8FBFF34F8FBFF3B6
:103AD0004F8FBFF34F8FBFF34F8FBFF34F8FBFF3A6
:103AE0004F8FBFF34F8FBFF34F8FBFF34F8FBFF396
:103AF0004F8FBFF34F8FBFF34F8FBFF34F8FBFF386
:103B00004F8FBFF34F8FBFF34F8FBFF34F8FBFF375
:103B10004F8FBFF34F8FBFF34F8FBFF34F8FBFF365
:103B20004F8FBFF34F8FBFF34F8FBFF34F8FBFF355
:103B30004F8FBFF34F8FBFF34F8FBFF34F8FBFF345
:103B40004F8FBFF34F8FBFF34F8FBFF34F8FBFF335
:103B50004F8FBFF34F8FBFF34F8FBFF34F8FBFF325
:103B60004F8FBFF34F8FBFF34F8FBFF34F8FBFF315
:103B70004F8FBFF34F8FBFF34F8FBFF34F8FBFF305
:103B80004F8FBFF34F8FBFF34F8FBFF34F8FBFF3F5
:103B90004F8FBFF34F8FBFF34F8FBFF34F8FBFF3E5
:103BA0004F8FBFF34F8FBFF34F8F0268126832F011
:103BB000400203681A6062B602689268D207FBD5B9
:103BC0000268127B0A70026892681206FBD4704782
:103BD00010B472B603681B6853F040030468236096
:103BE00013009BB2022B09D303689B68DB07F7D550
:103BF00003681B7B0B70491C521EF1E7BFF34F8F0C
:103C0000BFF34F8F03681B6833F0400304682360E1
:103C100062B603689B68DB07FBD503681B7B0B70F0
:103C200003689B681B06FBD410BC7047026892684F
:103C30009207FBD502681173026892689207FBD560
:103C4000026892681206FBD4704700207047026831
:103C5000531C0360117070472DE9F84100230024C4
:103C600000260025102D80F0E2805FF0010C1CFA88
:103C700005F213000A681A4014009C4240F0D580F7
:103C80004A68022A02D04A68122A1AD12A00D208A7
:103C900000EB8202126A0F275FEA850E1EF01C0EEF
:103CA00017FA0EF7BA430F695FEA850E1EF01C0E75
:103CB00017FA0EF73A4316002A00D20800EB8202E8
:103CC000166207685FF0030E6A001EFA02F297435D
:103CD00091F8048018F003086A0018FA02F858EA0C
:103CE000070707604A68012A08D04A68022A05D0F7
:103CF0004A68112A02D04A68122A1BD186686A00D3
:103D00001EFA02F29643D1F80C806A0018FA02F803
:103D100058EA0606866042681CFA05FC32EA0C0284
:103D2000D1F804C0CCF3001C1CFA05FC5CEA0202CA
:103D300017004760C6686A001EFA02FE36EA0E06E1
:103D4000D1F808C06A001CFA02FC5CEA0606C660EC
:103D50004A68D20069D5002200924D4A176857F48C
:103D600080471760126812F480420092009A494F0F
:103D70002A00920857F822205FF00F0C5FEA850EA8
:103D80001EF00C0E1CFA0EFC32EA0C02DFF808C121
:103D9000604501D1002614E0404EB04201D1012619
:103DA0000FE03F4EB04201D102260AE03D4EB04244
:103DB00001D1032605E03C4EB04201D1042600E0CB
:103DC0000726F6B25FEA850C1CF00C0C16FA0CF60E
:103DD00032432E00B60847F82620344F3E68A643EB
:103DE000D1F804C05FEACC3C00D526433E60304F9A
:103DF0003A68A243D1F804C05FEA8C3C00D5224364
:103E00003A602C4E3768A743D1F804C05FEACC2C47
:103E100000D527433760284A1668A643D1F804C066
:103E20005FEA8C2C00D5264316606D1C1AE7BDE8AE
:103E3000F181020010690B009BB2184201D00120F1
:103E400000E00020C0B270471300DBB2002B03D0AB
:103E50000B009BB2836103E00B009BB21B048361E8
:103E6000704743690A0092B253404361704710B5EE
:103E7000040012480168220092B2114206D02100CB
:103E800089B20160200080B200F072FA10BD00001B
:103E9000443802400838014000000240000402405B
:103EA00000080240000C024000100240003C0140AB
:103EB000043C0140083C01400C3C0140143C0140E2
:103EC00010B50400002C01D101203FE0606A0028F9
:103ED0000020A06294F85100002805D1002084F849
:103EE0005000200000F0CAFB022084F85100206836
:103EF000006830F04000216808606168A0680143F4
:103F0000E06801432069014360690143A06910F43E
:103F100000700143E0690143206A0143A06A014344
:103F200020680160A169090C11F00401606A014375
:103F3000206841602068C06930F400602168C86171
:103F400000206065012084F85100002010BD2DE99B
:103F5000FE4F07000E0015009846DDF83090002057
:103F60000190002002900020009001245FF0000AE0
:103F700097F85000012801D10220F9E0012087F8CC
:103F8000500000F0B7FC834697F851000190786824
:103F90000290019801280CD00298B0F5827F05D1DB
:103FA000B868002802D10198042802D00220824675
:103FB000D6E0002E05D0002D03D0404680B2002868
:103FC00002D101208246CBE097F85100012802D1AE
:103FD000052087F8510000207865BD63A7F83E8072
:103FE000A7F83C803E63A7F83680A7F8348000200D
:103FF00038640020786438680068400605D4386862
:10400000006850F0400039680860F868B0F5006F4B
:1040100040D17868002802D0F88E012806D1308877
:104020003968C860B61CF88E401EF886F88E0028E5
:1040300002D1F88F00286ED0002C0FD0F88E002807
:104040000CD038688068800708D530883968C86027
:10405000B61CF88E401EF88600200400F88F002859
:104060000CD038688068C00708D53868C0682880D8
:10407000AD1CF88F401EF8870120040019F1010FD4
:10408000D4D000F037FCB0EB0B004845CED3032072
:10409000824665E07868002802D0F88E012806D1B3
:1040A000307839680873761CF88E401EF886F88ED2
:1040B000002802D1F88F00282DD0002C0FD0F88EC8
:1040C00000280CD038688068800708D530783968B7
:1040D0000873761CF88E401EF88600200400F88FC6
:1040E00000280CD038688068C00708D53868C068D8
:1040F00028706D1CF88F401EF8870120040019F10C
:10410000010FD4D000F0F6FBB0EB0B004845CED346
:104110000320824624E0CDF800B04B460122022164
:10412000380000F0BFF8002802D00320824617E0D4
:104130005A464946380000F006F9002804D001200C
:104140008246202078650BE0B868002808D100205E
:1041500000903868C06800903868806800900098C7
:10416000012087F85100002087F850005046C0B267
:10417000BDE8FE8F7CB5040020684568206886682D
:1041800016F04100012805D1680603D52000216CF6
:10419000884776E0B00705D5280603D52000616C76
:1041A00088476EE016F4B07F6BD0A80669D570061C
:1041B0001BD594F8510003280DD0606D50F0040019
:1041C0006065002000902068C068009020688068CA
:1041D0000090009809E0002000902068C0680090DE
:1041E00020688068009000984BE0B0060FD5606DA5
:1041F00050F0010060650020009020688068009009
:104200002068006830F04000216808600098F005E0
:1042100009D5606D50F008006065002000902068AE
:10422000806800900098606D002829D02068406860
:1042300030F0E00021684860012084F8510015F05A
:10424000030F1AD020684068800880002168486009
:10425000E06C002806D00FF23500E16C0865E06CD8
:1042600000F04EFBA06C00280AD00FF22100A16CD8
:104270000865A06C00F044FB02E0200000F054FB55
:10428000FFE773BD90F851007047000038B5040097
:10429000A56B0020E8870020E886280000F044FB9A
:1042A00031BD00002DE9F04105000E0017001C0093
:1042B000DDF81880286880683040B04201D10120C4
:1042C00000E00020B8423BD014F1010FF2D0002CE6
:1042D00005D000F00FFBB0EB0800A042EAD328683D
:1042E000406830F0E000296848606868B0F5827F77
:1042F0000DD1A868B0F5004F03D0A868B0F5806F65
:1043000005D12868006830F0400029680860A86A74
:10431000B0F5005F0CD1286801684DF6FF700140D0
:10432000286801602868006850F400502968086017
:10433000012085F85100002085F85000032000E09E
:104340000020BDE8F0817CB504000D001600009649
:104350002B00002280212000FFF7A4FF002805D0B9
:10436000606D50F020006065032000E0002076BD05
:1043700010B50400200080B2102804D100F031FBF9
:1043800001209F49086010BDFEB504000D00160015
:104390001F00642101A800F04DFD3800C0B200905C
:1043A00030000300DBB22A002100964800F0AFF88D
:1043B000002804D001A800F045FD0028EDD0F7BD8D
:1043C00080B59048904901604FF4827141600021AE
:1043D00081600021C16000210161002141614FF431
:1043E0000071816100210162002141620721C162E7
:1043F0001821C16100218162FFF762FD01BD10B586
:10440000824C002204212000FFF71EFD052000F051
:1044100028FD012204212000FFF716FD052000F0F1
:1044200020FD10BD80B510217948FFF702FD01285D
:1044300001D1012000E0002002BD2DE9F84386B043
:1044400004000D0016005FF00008FF208DF8040046
:1044500004A87049D1E90023C0E90023DFF8AC913A
:10446000002201214846FFF7EFFC0F2000900523B2
:1044700002AA04A92000FFF76AFD9DF8080002289F
:1044800030D19DF80C009DF80B1051EA00210F006F
:10449000380080B2002825D03000C0B2390080B288
:1044A00089B2884202D23000C0B2070000208046A4
:1044B0004046C0B2390080B289B2884212D272B688
:1044C0000F20009001230DF1050201A92000FFF744
:1044D0003EFD62B69DF805004146C9B2685418F128
:1044E0000108E5E7012201214846FFF7ADFC002065
:1044F00000900098022804DA00BF0098401C009049
:10450000F7E75FFA88F8404607B0BDE8F0832DE989
:10451000F04FC5B083460D0016001F004E9C5FF0A3
:1045200000085FF0000903A83B49D1E90023C0E976
:10453000002301A83949D1E90023C0E9002300F094
:1045400055F8DFF8C8A0002201215046FFF77CFC97
:1045500072B60F200090052301AA03A95846FFF761
:10456000F6FC62B69DF8040002282CD19DF80500E7
:104570002100C9B251FA87F1884220DB3800C0B26D
:1045800000280BD072B60F2000903B00DBB29BB22C
:1045900005AA29005846FFF7DAFC62B62000C0B22F
:1045A000002813D072B60F2000902300DBB29BB21C
:1045B00005AA31005846FFF7CAFC62B606E07FF054
:1045C0000100804602E05FF0FF30804601220121B9
:1045D0005046FFF739FC00F004F8404645B0BDE80E
:1045E000F08F80B50A2000F0DCFC01BD80B50A2008
:1045F00000F0DEFC01BD1020094908607047000092
:10460000A8120020680B0020003001400004024086
:1046100000000240A8220108B0220108B8220108C7
:10462000143C014080B5032000F0A0FC00220021D2
:104630005FF0FF3000F0A0FC01BD10B586B00400B3
:104640002068DFF88412884216D100200090DFF83D
:104650007C02016851F480710160006810F4807080
:104660000090009802200190032002900020039007
:1046700001A99748FFF7F0FA06B010BD70B586B0F3
:10468000040020689349884240F08C800020059007
:104690009148016851F002010160016811F00201C6
:1046A0000591059900210591016851F00101016012
:1046B000006810F0010005900598002005908348DF
:1046C000016851F480510160006810F48050059039
:1046D0000598042000900120019001200290002004
:1046E0000390002004907A4D69462800FFF7B4FA41
:1046F000002204212800FFF7A7FB202000900220C1
:104700000190022002900320039005200490734E34
:1047100069463000FFF7A0FA402000900220019087
:104720000020029003200390052004906946300089
:10473000FFF792FA80200090022001900020029062
:10474000032003900520049069463000FFF784FAA7
:10475000012000900120019001200290032003908D
:104760000020049069462800FFF776FA0122012113
:104770002800FFF769FB10200090594801900020A5
:104780000290032003900020049069463000FFF758
:1047900063FA002203210A2000F0EEFB0A2000F059
:1047A00000FCFFE706B070BD10B586B004002068BD
:1047B000B0F1804F22D1002000904A48016851F0AA
:1047C00001010160006810F00100009000980F20C6
:1047D0000190022002900220039002200490012008
:1047E000059001A93D48FFF737FA002202211C205D
:1047F00000F0C2FB1C2000F0D4FB37E020683A49EF
:1048000088421BD1002000903648016851F0040115
:104810000160006810F00400009000984FF4707080
:1048200001900220029000200390002004900220BA
:10483000059001A92648FFF70FFA17E020682B49D9
:10484000884213D1002000902048016851F4803143
:104850000160006810F4803000900098002203216D
:10486000182000F089FB182000F09BFB06B010BD5B
:1048700010B586B0040020681D49884222D100206E
:1048800000901248016851F010010160006810F0BA
:104890001000009000984FF4C06001900220029038
:1048A00001200390032004900720059001A90B48E4
:1048B000FFF7D2F900220421252000F05DFB25201E
:1048C00000F06FFB06B010BD0020014044380240EC
:1048D0000004024000300140303802400000024035
:1048E0000000111040380240000800400040014024
:1048F0000010014001480068704700BF2C130020E1
:10490000010091F83500022803D08020486501207D
:1049100009E0052081F8350008680068400840007B
:104920000A681060002070477047000038B5DFF853
:104930009053280000F06EFBDFF8880300F06AFB5C
:1049400000242000C0B205280BDADFF87C13220017
:10495000D2B28C2042431144280000F078FB641C42
:10496000EFE731BD010011F108021078042801D0F1
:10497000012008E0907891F88830DB1E984201D041
:10498000022000E00020704738B500200090FFF7BB
:104990002DFECC4D280000F040FB04002000C0B2EA
:1049A000002814D16946280000F069FBFFF719FEC2
:1049B0000098083001F027FCFFF718FE0099C04866
:1049C00000F045FB280000F028FB0400E6E700F0BB
:1049D00008F8FFF706FE31BD80B5BA4800F01DFBB0
:1049E00002BD38B500200090FFF705FEFFF71AFD65
:1049F000002831D0B24D280000F00FFB002828D14C
:104A00006946280000F03BFB8022009810F1080165
:104A1000AE48FFF712FD04002000C0B2002811D0FC
:104A2000009880F888400098FFF79CFF002804D188
:104A30000099A44800F00BFB08E00099280000F062
:104A4000FAFA03E00099280000F0F5FAFFF7D3FD29
:104A5000CCE7FFF7D0FDFFE731BDF8B504000D004E
:104A600016001F003B00DBB23200D2B2290020004A
:104A7000FFF78AFCF1BDFEB504000D0016001F0013
:104A8000A805800D50EA8420ADF804008DF806607A
:104A900001208DF80000032201A90DF1010001F0B1
:104AA00052FC3300DBB2042239006846FFF7D5FF21
:104AB000F7BD38B504000D00280000F0AEFA00285C
:104AC00008D16946280000F0EEFA0099200000F0B5
:104AD000B2FAF1E731BD1CB5FFF788FD784C200034
:104AE00000F0F5FA02280ADA6946764800F0C7FABB
:104AF0000099200000F0ABFAFFF773FFEEE7FFF735
:104B000070FD13BD2DE9F04F89B004000D006688DB
:104B1000B605B60D208856EA80266427002000904E
:104B200005A800F077FAFFF7D6FFA368E068020057
:104B3000D2B261882088FFF79EFF2800C0B200280B
:104B400001D00020B8E0390007A800F073F907A8E9
:104B500000F078F9002840F09480FFF73DFF00282E
:104B6000F5D1FFF743FDDFF85C816946404600F070
:104B700086FA00980830039003980078042862D1E0
:104B80000398401C049000980B308146009890F8E0
:104B90008800C01E8246049800780E2823D00F2873
:104BA00004D010284ED03E2835D04CE0CDF80890E7
:104BB00002984088310089B2884262D160680F282B
:104BC00004D00298007800285BD13CE060698245FF
:104BD00001DA504600E06069606162694946206917
:104BE00001F0B1FB5DE0CB46BBF80100310089B2BA
:104BF000884246D119F10309BAF1030A6069824576
:104C000001DA504600E060696061626949462069E6
:104C100001F099FB45E0CDF80490019800786168B7
:104C2000884210D1BAF1010A6069824501DA504622
:104C300000E06069606162690198411C206901F0CF
:104C400082FB2EE01DE0DFF878B0584600F0E5F971
:104C500000280BD0404600F0E0F9002806D000996B
:104C6000584600F0F4F90020009005E0009905A8EE
:104C700000F0EDF900200090FFF7B3FEFFF7B1FC64
:104C800065E70098002803D000990D4800F0D3F99B
:104C900005A90C48FFF70DFFFFF7A3FC5FF0FF30FD
:104CA0000AE00099064800F0C6F905A94046FFF75A
:104CB00000FFFFF796FC002009B0BDE8F08F000070
:104CC000041200200C1200208C060020680B00202B
:104CD0002DE9F84189B004000D0016001F00DDF831
:104CE000408009220021684601F03DFB1822002186
:104CF00003A801F038FB0420ADF80C000120ADF84A
:104D00000E000020059000200690684607900920BC
:104D10000890002103A8FFF7F5FE002801D5FF2029
:104D200017E09DF80000002802D09DF8000010E078
:104D30009DF801002070BDF8020028809DF8040055
:104D40003070BDF805003880BDF80700A8F80000F5
:104D500000200AB0BDE8F08130B58FB004000D002E
:104D60002022002107A801F0FEFA8DF81C40200047
:104D7000C0B2202801DB1F2201E02200D2B22900AC
:104D80000DF11D0001F0DFFA1822002101A801F049
:104D9000EAFA0820ADF804000920ADF8060007A8DB
:104DA0000390202004906846059001200690002181
:104DB00001A8FFF7A7FE002801D5FF2001E09DF81C
:104DC00000000FB030BD38B588B004000D000422DB
:104DD0000021684601F0C7FA2088ADF804001822C7
:104DE000002102A801F0BFFA0520ADF80800052057
:104DF000ADF80A0001A804900220059068460690CC
:104E000004200790002102A8FFF77CFE002801D5AE
:104E1000FF200DE09DF80000002802D09DF8000062
:104E200006E0BDF8010020809DF8030028700020F6
:104E300009B030BD38B504000D006560FFF75AFDBC
:104E4000206031BD10B50400FFF754FD2168411A00
:104E5000491C6068884201D2012000E00020C0B2F5
:104E600010BD31B50024FFF745FD0500FFF742FDF9
:104E7000401B00998842F9D331BD000010B410F0F6
:104E80000703594C22684FF6FF010A4052EA0322F9
:104E900056490A43226010BC704753480068C0F36B
:104EA00002207047012210F01F018A405049030080
:104EB0005BB25B0941F823207047012210F01F010B
:104EC0008A404C4903005BB25B0941F823207047DC
:104ED00010B4020052B2002A09D50A01464B040060
:104EE00064B214F00F04234403F8042C04E00A0114
:104EF000424B040064B21A5510BC704770B40300F2
:104F000013F00704D4F10700052801D3042001E0C1
:104F1000D4F10700251D072D01D2002500E0E51E74
:104F2000012616FA00F0401E0140A94016FA05F5C8
:104F30006D1E2A401143080070BC704710B5040074
:104F4000601EB0F1807F01D301200EE0601E2C496D
:104F500008600F215FF0FF30FFF7BAFF00202949FA
:104F60000860072028490860002010BD10B5040023
:104F70002000FFF783FF10BD2DE9F04104000D0074
:104F800016000027FFF789FF8046320029004046BF
:104F9000FFF7B4FF0100200040B2FFF799FFBDE822
:104FA000F08110B50400200040B2FFF77BFF10BD78
:104FB00010B50400200040B2FFF77FFF10BD10B510
:104FC00004002000FFF7BAFF10BD042805D10E49E8
:104FD0000A6852F004020A6004E00B490A6832F0E1
:104FE00004020A60704700000CED00E00000FA05C2
:104FF00000E100E080E100E018ED00E000E400E006
:1050000014E000E018E000E010E000E080B501F0FE
:10501000F6F901BD0060406070470100EFF31082B7
:1050200072B60868884201D1012000E0002082F3B6
:105030001088C0B27047EFF3108272B603680B603D
:10504000486001600B68596082F310887047EFF385
:10505000108272B6086043684B6041604B6819600B
:1050600082F310887047EFF3108172B602684368CC
:105070001A60426803685A6081F31088704770B5FF
:1050800004000D00EFF3108672B6206828602068D7
:10509000FFF7E9FF002029680860002029684860C0
:1050A00086F3108870BD70B504000D00EFF3108614
:1050B00072B6606828606068FFF7D5FF0020296835
:1050C000086000202968486086F3108870BD0100E0
:1050D0000020EFF3108372B60A688A4202D0401CA7
:1050E0001268FAE783F31088704700002DE9F8434F
:1050F00004000D0016001F005FF06408DFF8049C38
:10510000D9F80000012805DBD9F80000401EC9F8D5
:10511000000013E0089800903B00DBB23200D2B2EE
:10512000290089B2200080B201F09AFB80464046F7
:10513000C0B2002802D01E20C9F800004046C0B20C
:10514000BDE8F28370B58AB01B208DF8180006AC5C
:10515000C5206070D520A070A520E07002202071CD
:1051600000206071B420A0719A20E071E1202072CB
:10517000112060720F20A0720020E07200202073C6
:10518000002060730020A0730020E073DFF85C6AE9
:1051900000960423012206A9022001F071FA0500FD
:1051A0002800C0B200283AD11B208DF81800C52075
:1051B0006070D520A070A520E07002202071002032
:1051C00060713620A071AC20E071E12020721120C6
:1051D00060720F20A0720020E07202202073002075
:1051E00060730020A0730020E073DFF81C0B0590B3
:1051F00001200490102003900520029000200190CF
:1052000014200090142306AA0221308801F09CFA91
:1052100005002800C0B2002801D1002000E047208E
:105220000AB070BD70B58AB01B208DF8180006ACAE
:10523000C5206070D520A070A520E07002202071EC
:1052400000206071B420A0719A20E071E1202072EA
:10525000112060720E20A0720020E07200202073E6
:10526000002060730020A0730020E073DFF89C6AC8
:1052700000960723012206A9022001F001FA050089
:105280002800C0B2002873D11B208DF81800C5205B
:105290006070D520A070A520E07002202071002051
:1052A00060713620A071AC20E071E12020721120E5
:1052B00060720E20A0720020E07201202073002096
:1052C00060730020A0730020E073DFF8440A0590AB
:1052D00001200490102003900520029000200190EE
:1052E0001E200090142306AA0221308801F02CFA17
:1052F00005002800C0B200283AD11B208DF8180004
:10530000C5206070D520A070A520E070022020711B
:10531000002060713620A071AC20E071E120207285
:10532000112060720E20A0720020E0720220207313
:10533000002060730020A0730020E073DFF8D40920
:10534000059001200490102003900420029000207A
:10535000019012200090142306AA0221308801F047
:10536000F3F905002800C0B2002801D1002000E0B8
:1053700047200AB070BD2DE9F84F04000D0000274A
:1053800038002900C0B2C9B2884235D2E81B0100FA
:10539000C9B2152902DB5FF0140800E08046C1465F
:1053A0005FFA89F93800C0B204EB000ADFF868B987
:1053B0004A465146584601F0D3FADFF8600980F8B2
:1053C00000803800C0B2204400904346DBB2002287
:1053D000DFF840090188DFF83409008801F040FA5D
:1053E00006003000C0B2002801D0472005E00A20A6
:1053F000FFF737FD1437C3E70020BDE8F28F2DE932
:10540000F84F04000D00002738002900C0B2C9B2CF
:10541000884239D2E81B0100C9B2152902DB5FF0CE
:10542000140800E08046C1465FFA89F93800C0B22E
:1054300004EB000ADFF8E8B84A465146584601F046
:105440008FFADFF8E00880F800803800C0B220440E
:1054500000904346DBB20022DFF8B4080188DFF891
:10546000AC08008801F0FCF906003000C0B200284A
:1054700005D0DFF8780A01F0C7FA472005E01420CC
:10548000FFF7EFFC1437BFE70020BDE8F28F80B5CF
:10549000DFF884080090DFF8840803780022DFF842
:1054A00074080188DFF86408008801F0D9F9010068
:1054B0000800C0B2002801D0472000E0002002BD53
:1054C0007CB5DFF85C080090DFF85808037800220C
:1054D000DFF83C080188DFF83408008801F0C0F9E3
:1054E00004002000C0B200281BD0DFF80C0A0068BE
:1054F000800510D5DFF8045ADFF8046ADFF8EC19EC
:10550000300001F0A7FA286028680100C9B2300015
:10551000FFF731FF03E0DFF8D40901F075FA472007
:1055200000E0002076BDF8B58AB005241B208DF878
:10553000180006AEC5207070D520B070A520F070A0
:105540000220307100207071B420B0719A20F07187
:10555000E1203072112070720120B0720020F072D0
:1055600000203073002070730020B0730020F073AF
:10557000DFF894790097032000FB04F0401C03003F
:10558000DBB2012206A9022001F07AF8050028000A
:10559000C0B2002840F038811B208DF81800C520CB
:1055A0007070D520B070A520F070022030710020FE
:1055B00070713620B071AC20F071E1203072112092
:1055C00070720120B0720020F07200203073002051
:1055D00070730020B0730020F073B07B50F00500B2
:1055E000B073DFF828090178091D0170B17B51F013
:1055F0000801B1730178891C0170B17B51F0100171
:10560000B1730178091D0170DFF8040905900020CD
:10561000049010200390042002900020019012209A
:1056200000900C2306AA0221388801F08DF80500AD
:105630002800C0B2002840F0E7801B208DF8180039
:10564000C5207070D520B070A520F0700220307198
:10565000002070713620B071AC20F071E120307202
:10566000112070720120B0720020F072002030739F
:1056700000207073E020B0730020F073DFF87C0B23
:105680000590002004901020039004200290002038
:10569000019010200090142306AA0221388801F0FE
:1056A00053F805002800C0B2002840F0AD801B2050
:1056B0008DF81800C5207070D520B070A520F0704E
:1056C00002203071002070713620B071AC20F07172
:1056D000E1203072112070720120B0720020F0724F
:1056E00000203073042070730020B0730020F0732A
:1056F000DFF810080590002004901020039004208B
:1057000002900020019012200090042306AA02219A
:10571000388801F019F805002800C0B2002873D1BC
:105720001B208DF81800C5207070D520B070A52002
:10573000F07002203071002070713620B071AC2002
:10574000F071E1203072112070720120B0720020DF
:10575000F07200203073002070730020B07320209E
:10576000F073DFF83C0B05900020049010200390AC
:10577000042002900020019012200090032306AA2A
:105780000221388800F0E0FF05002800C0B20028A0
:105790003AD11B208DF81800C5207070D520B0704C
:1057A000A520F07002203071002070713620B07199
:1057B000AC20F071E1203072112070720120B072C3
:1057C0000020F07200203073802070730020B073CE
:1057D0000020F073DFF8CC0A059000200490102020
:1057E000039001200290002001900C2000900723DC
:1057F00006AA0221388800F0A7FF05002800C0B2E1
:10580000002801D1002000E047200BB0F0BD2DE9B9
:10581000F84386B004000D001600FFF76BF8C008CF
:105820008DF80400FFF766F8C00A8DF805002068BF
:105830008DF8060001A821680912C1706168017124
:10584000616809128DF80910A1688DF80A10A16825
:1058500009128DF80B102968642291FBF2F129607E
:105860006968642291FBF2F16960A968642291FB86
:10587000F2F1A96029680172296809128DF80D10EA
:1058800069688DF80E1069680912C172A8688DF8F0
:105890001000A86800128DF8110030688DF8120011
:1058A000306800128DF8130070688DF8140070686D
:1058B00000128DF81500B0688DF81600B06800125F
:1058C0008DF8170001A8009014230022DFF82C099E
:1058D0000188DFF834060088FFF708FC070038006D
:1058E000C0B200281DD0DFF810060068800512D570
:1058F000DFF80886DFF80896DFF8AC19484601F0B3
:10590000A9F8C8F80000D8F800000100C9B248465C
:10591000FFF731FD03E0DFF8900901F075F847204B
:1059200000E0002007B0BDE8F0832DE9F84F84B017
:1059300005000E0017009846FEF7DCFFC0088DF842
:1059400004000DF10409FEF7D5FFC00A89F8010033
:1059500002242000C0B209F800502800001201A95A
:105960002200D2B2114448702800001401A922007C
:10597000D2B2114488702800001601A92200D2B2C8
:105980001144C870241D2000C0B209F80060300026
:1059900080B2000A01A92200D2B211444870A41CAE
:1059A0002000C0B209F80070380000B2001201A94E
:1059B0002200D2B211444870A41C2000C0B209F8E1
:1059C0000080404600B2001201A92200D2B2114468
:1059D0004870A41C01A800900C230022DFF83005B9
:1059E0000188DFF82405008800F03AFF8146484628
:1059F000C0B200281DD0DFF800050068800512D570
:105A0000DFF8F8B4DFF8F8A4DFF8A018504601F08A
:105A100021F8CBF80000DBF800000100C9B25046C5
:105A2000FFF7A9FC03E0DFF8840800F0EDFF472052
:105A300000E0002005B0BDE8F08FFEB50400FEF7E1
:105A400059FFC0088DF80400FEF754FFC00A8DF816
:105A500005008DF8064001A8009003230022DFF81E
:105A600040080188DFF8A004008800F0F9FE050076
:105A70002800C0B200281BD0DFF87C040068800535
:105A800010D5DFF87864DFF87874DFF82418380070
:105A900000F0E0FF306030680100C9B23800FFF765
:105AA0006AFC03E0DFF80C0800F0AEFF472000E0DE
:105AB0000020FEBD80B590B007A8DFF8FC17D1E943
:105AC0000023C0E9002309A8DFF8F0171C2200F02A
:105AD00057FFDFF8EC0741798DF8381001798DF820
